:100000000C943E010C946F010C946F010C946F01E1
:100010000C946F010C946F010C946F010C946F01A0
:100020000C946F010C946F010C946F010C946F0190
:100030000C946F010C946F010C946F010C946F0180
:100040000C946F010C946F010C946F010C946F0170
:100050000C946F010C946F010C946F010C940A07BF
:100060000C946F010C94D4060C94AA060C946F01A6
:100070000C946F010C946F010C946F010C946F0140
:100080000C946F010C946F010C946F010C946F0130
:100090000C9474060C944A060C946F010C946F0136
:1000A0000C946F010C946F010C946F010C946F0110
:1000B0000C946F010C946F010C946F010C946F0100
:1000C0000C946F010C946F010C946F010C946F01F0
:1000D0000C946F010C946F010C946F010C946F01E0
:1000E0000C946F010C94FA020C94CD020C948502CE
:1000F0000C94F6010C9498010C94E8010C94EC0219
:100100000C94D4010C9404030C9408030C94FE0288
:100110000C94F6020C94C9020C9446090C94DE026D
:100120000C94D2030C94D8020C94C5010C94E802F0
:100130000C94C3020C94E2020C9454070C94380201
:100140000C94D3030C9418050C9403030C94D5025F
:100150000C94F0020C94D10200002100240027002E
:100160002A002D00300033000101000004010701C6
:100170000A0100002200250028002B002E0031007B
:10018000340002010000050108010B0100002000FD
:100190002300260029002C002F003200000100005F
:1001A00003010601090105050505070508080808FA
:1001B000020202020A0A08080404040401010101FF
:1001C00001010101030303030303030304070707FA
:1001D0000C0C0C0C0C0C0C0C02020202060606069F
:1001E000060606060B0B0B0B0B0B0B0B010210206C
:1001F000200808102040102040800201020108045D
:1002000002010102040810204080804020100804F0
:100210000201800402018040201008040201080449
:10022000020101020408102040800102040810208D
:10023000408000000A0B02090C0D0E0807030401A0
:1002400000000000000000000000000000000000AE
:10025000000000000000000000000000000012117B
:10026000100000000000000000000000000000007E
:1002700000000000000000005407460911241FBEC2
:10028000CFEFD1E2DEBFCDBF00E00CBF23E0A2E59F
:10029000B2E001C01D92A13CB207E1F712E0A0E07C
:1002A000B2E0E6E4F9E100E00BBF02C007900D9276
:1002B000A235B107D9F711E0CDE3D1E000E006C0E7
:1002C00021970109802FFE010E94730ACC33D107C8
:1002D00080E00807A9F70E94DF070C94910C0C94AA
:1002E0000000FC01A089B18982E08C93A485B585CA
:1002F0001C92A685B7858FEC8C93108EA489B58946
:1003000086E08C93A289B3898C9180618C93A289B9
:10031000B3898C9188608C93A289B3898C91806811
:100320008C930288F389E02D80818F7D80830895EE
:10033000AF92BF92CF92DF92EF92FF920F931F93F3
:10034000CF93DF936C017B018B01040F151FEB0131
:100350005E01AE18BF08C017D10759F06991D601E8
:10036000ED91FC910190F081E02DC6011995892B4A
:1003700079F7C501DF91CF911F910F91FF90EF9019
:10038000DF90CF90BF90AF900895FC01538D448DC6
:10039000252F30E0842F90E0821B930B541710F030
:1003A000CF96089501970895FC01918D828D98173D
:1003B00061F0A28DAE0FBF2FB11D5D968C91928D15
:1003C0009F5F9F73928F90E008958FEF9FEF089546
:1003D000FC01918D828D981731F0828DE80FF11D0F
:1003E000858D90E008958FEF9FEF0895FC01918D2A
:1003F000228D892F90E0805C9F4F821B91098F7323
:100400009927089581E692E00E94F60121E0892B68
:1004100009F420E0822F08958EEF92E00E94F60109
:1004200021E0892B09F420E0822F0895FC01A48D9E
:10043000A80FB92FB11DA35ABF4F2C91848D90E006
:1004400001968F739927848FA689B7892C93A089E9
:10045000B1898C91837080648C93938D848D981373
:1004600006C00288F389E02D80818F7D8083089506
:10047000EF92FF920F931F93CF93DF93EC0181E0F4
:10048000888F9B8D8C8D98131AC0E889F98980819B
:1004900085FF15C09FB7F894EE89FF896083E889CE
:1004A000F98980818370806480839FBF81E090E0C0
:1004B000DF91CF911F910F91FF90EF900895F62E4D
:1004C0000B8D10E00F5F1F4F0F731127E02E8C8DE7
:1004D0008E110CC00FB607FCFACFE889F98980812C
:1004E00085FFF5CFCE010E941602F1CFEB8DEC0F08
:1004F000FD2FF11DE35AFF4FF0829FB7F8940B8F49
:10050000EA89FB8980818062CFCFCF93DF93EC01B2
:10051000888D8823B9F0AA89BB89E889F9898C91EB
:1005200085FD03C0808186FD0DC00FB607FCF7CFA7
:100530008C9185FFF2CF808185FFEDCFCE010E94A7
:100540001602E9CFDF91CF9108958150823108F0F2
:100550005AC0E82FF0E08827EF54FD4F8F4F0C94DE
:10056000730AD102D502C302C902CD020303D80225
:10057000DE02E202E802EC02F002F602FA020303F3
:10058000FE0204030803809180008F77809380002F
:100590000895809180008F7DF9CF80918000877FC2
:1005A000F5CF84B58F7784BD089584B58F7DFBCF5B
:1005B0008091B0008F778093B00008958091B00053
:1005C0008F7DF9CF809190008F7780939000089570
:1005D000809190008F7DF9CF80919000877FF5CF3B
:1005E0008091A0008F778093A00008958091A00053
:1005F0008F7DF9CF8091A000877FF5CF809120017A
:100600008F77809320010895809120018F7DF9CF0D
:1006100080912001877FF5CFCF93DF93282F30E0A3
:10062000F901EE5CFD4F8491F901E451FE4FD49144
:10063000F901EA55FE4FC491CC23A1F081110E942B
:10064000A502EC2FF0E0EE0FFF1FE457FE4FA5913F
:10065000B491EC91ED2381E090E009F480E0DF912A
:10066000CF91089580E090E0FACF1F93CF93DF936E
:10067000282F30E0F901EE5CFD4F8491F901E4513F
:10068000FE4FD491F901EA55FE4FC491CC23A9F055
:10069000162F81110E94A502EC2FF0E0EE0FFF1F34
:1006A000EE58FE4FA591B4918FB7F894EC911111CB
:1006B00008C0D095DE23DC938FBFDF91CF911F91CF
:1006C0000895DE2BF8CFCF93DF9390E0FC01E45147
:1006D000FE4F24918A559E4FFC0184918823D1F0CE
:1006E00090E0880F991FFC01E85AFE4FA591B49144
:1006F000FC01EE58FE4FC591D49161110EC09FB719
:10070000F8948C91E22FE0958E238C932881E2233C
:10071000E8839FBFDF91CF9108958FB7F894EC9154
:10072000E22BEC938FBFF6CF2FB7F894609157026E
:10073000709158028091590290915A022FBF0895EA
:100740000F931F930E949403609306037093070313
:1007500080930803909309038EEF92E00E94D401E6
:1007600097FF1DC00E949403009106031091070398
:100770002091080330910903601B710B820B930BCE
:1007800000910203109103032091040330910503AB
:100790006017710782079307F8F28FEF9FEF1F91A1
:1007A0000F910895089590E080E00895CF93DF932E
:1007B000EC0160E08E810E94350361E08E810E9431
:1007C000350360E08E810E9435038BE891E001974C
:1007D000F1F7DF91CF910895CF92DF92EF92FF92E0
:1007E0000F931F93CF93DF936C017C0187E0E80E9A
:1007F000F11CD0E0C0E0062F10E0B8010C2E02C0C2
:10080000759567950A94E2F76170F70181917F0110
:100810000E9435032196C430D10579F7C601DF91D6
:10082000CF911F910F91FF90EF90DF90CF900C949C
:10083000D603CF92DF92EF92FF920F931F93CF9345
:10084000DF93EC01F62E642F8C810E9435038D819D
:100850008F3F19F060E00E9435030F2D10E08F8567
:1008600084FF25C06E0187E0C80ED11CF12CE12C5D
:10087000B8010E2C02C0759567950A94E2F7617075
:10088000F60181916F010E943503FFEFEF1AFF0A15
:1008900088E0E816F10461F7CE01DF91CF911F9156
:1008A0000F91FF90EF90DF90CF900C94D603B8019A
:1008B00084E0759567958A95E1F7CE010E94EC0377
:1008C0006F2DCE01DF91CF911F910F91FF90EF908F
:1008D000DF90CF900C94EC0340E0682F8BE993E01D
:1008E0000C941904CF93DF93823029F49091AA03DA
:1008F00098609093AA038093AE031092AF0380E4B4
:100900008093B00380E18093B10380E58093B203CC
:1009100061E080919F030E9463038091A0038F3F59
:1009200019F061E00E94630361E08091A1030E94DD
:100930006303CBE9D3E09E012B5933408091AA0396
:1009400084FD0BC084E090E021962817390744F419
:1009500061E08E810E946303EECF88E090E0F4CFE7
:100960008BE39DE00197F1F760E080919F030E9487
:10097000350360E08091A1030E9435038091A003BC
:100980008F3F19F060E00E9435038091AA0384FD37
:1009900039C063E08BE993E00E94EC03CBE4D6E43A
:1009A000CE010197F1F763E08BE993E00E94EC033D
:1009B0002197F1F763E08BE993E00E94EC0383E574
:1009C00092E00197F1F762E08BE993E00E94EC037B
:1009D0008091AA0380620E946C0484E08093AB0340
:1009E0008CE00E946C0481E00E946C048BE39FE128
:1009F0000197F1F782E08093AC0386E0DF91CF911D
:100A00000C946C0480620E946C048BE496E4019761
:100A1000F1F78091AA0380620E946C0483E592E062
:100A20000197F1F78091AA0380620E946C04D0CFF5
:100A300041E00E94190481E090E00895FB010190DB
:100A40000020E9F73197AF01461B570BDC01ED9110
:100A5000FC910280F381E02D19940F931F93CF93A3
:100A6000DF93EC01FB0144815581608171810E941B
:100A700098018C0164E272E0CE010E941E05800F95
:100A8000911FDF91CF911F910F9108950F931F93A5
:100A9000CF93DF93EC0188819981009759F02A81E7
:100AA0003B812617370730F081E0DF91CF911F910E
:100AB0000F9108958B016F5F7F4F0E94A00B0097ED
:100AC00059F0998388831B830A832C813D81232BD2
:100AD00059F7FC011082E8CF80E0E7CFEF92FF9258
:100AE0000F931F93CF93DF93EC017B018A01BA012F
:100AF0000E94460528813981811114C021153105D4
:100B000019F0C9010E94170B198218821D821C82DC
:100B10001B821A82CE01DF91CF911F910F91FF901E
:100B2000EF9008951D830C83B701C9010E948A0CC0
:100B3000F1CFFC0101900020E9F73197AF01481B8C
:100B4000590BBC0183EB93E00C946E05EF92FF927E
:100B50000F931F93CF93DF9300D000D01F921F926B
:100B6000CDB7DEB78BE3E82E8FE1F82E8EEF92E063
:100B70000E94F601892B09F457C081E00E946C04A1
:100B8000C7010197F1F7E1E08091AE038111E0E048
:100B9000E195F0E0E556FC4F8489885F80680E940B
:100BA0006C041A8219821C821B821E821D8250E0F4
:100BB00040E066E272E0CE0101960E946E050E945E
:100BC000A0034D815E8197FD1AC08F8318868A012C
:100BD0000F5F1F4FB801CE0101960E944605882382
:100BE00071F329813A818D819E81BE01695F7F4FBA
:100BF000820F931F0E948A0C1E830D83E0CF6981B0
:100C00007A818BE993E00E949801BE016F5F7F4F6C
:100C100081E692E00E942D0589819A81009709F46E
:100C2000A5CF0E94170BA2CF28960FB6F894DEBF6F
:100C30000FBECDBFDF91CF911F910F91FF90EF902D
:100C400008950E940C0281110E94A60580E090E0A8
:100C5000892B29F00E94020281110E94000080E08D
:100C600090E0892B49F080E090E0892B29F00E94E8
:100C7000000081110E94000080E090E0892B49F083
:100C800080E090E0892B29F00E94000081110C94F3
:100C9000000008951F920F920FB60F9211240BB609
:100CA0000F922F933F934F935F936F937F938F9305
:100CB0009F93AF93BF93EF93FF9381E692E00E94DF
:100CC0001602FF91EF91BF91AF919F918F917F910C
:100CD0006F915F914F913F912F910F900BBE0F90AD
:100CE0000FBE0F901F9018951F920F920FB60F9284
:100CF00011240BB60F922F938F939F93EF93FF9333
:100D0000E0917102F09172028081E0917702F0919E
:100D1000780282FD1DC0908180917A028F5F8F736F
:100D200020917B02821741F0E0917A02F0E0EF59C6
:100D3000FD4F958F80937A02FF91EF919F918F9154
:100D40002F910F900BBE0F900FBE0F901F90189514
:100D50008081F2CF1F920F920FB60F9211240BB623
:100D60000F922F933F934F935F936F937F938F9344
:100D70009F93AF93BF93EF93FF938EEF92E00E9408
:100D80001602FF91EF91BF91AF919F918F917F914B
:100D90006F915F914F913F912F910F900BBE0F90EC
:100DA0000FBE0F901F9018951F920F920FB60F92C3
:100DB00011240BB60F922F938F939F93EF93FF9372
:100DC000E0910E03F0910F038081E0911403F09104
:100DD000150382FD1DC09081809117038F5F8F7373
:100DE00020911803821741F0E0911703F0E0E250E0
:100DF000FD4F958F80931703FF91EF919F918F91F6
:100E00002F910F900BBE0F900FBE0F901F90189553
:100E10008081F2CF1F920F920FB60F9211242F9361
:100E20003F938F939F93AF93BF938091570290917D
:100E30005802A0915902B0915A023091560223E013
:100E4000230F2D3758F50196A11DB11D2093560291
:100E50008093570290935802A0935902B0935A027C
:100E60008091520290915302A0915402B091550288
:100E70000196A11DB11D8093520290935302A0933D
:100E80005402B0935502BF91AF919F918F913F91C2
:100E90002F910F900FBE0F901F90189526E8230FEB
:100EA0000296A11DB11DD2CFE1E6F2E013821282BB
:100EB00048EE53E060E070E04483558366837783B7
:100EC0008AE092E0918380832DEC30E0358724879F
:100ED0002CEC30E03787268728EC30E0318B208BF4
:100EE00029EC30E0338B228B2AEC30E0358B248BDD
:100EF0002EEC30E0378B268B118E128E138E148ED3
:100F0000EEEFF2E013821282448355836683778387
:100F10009183808385EC90E09587848784EC90E0D2
:100F20009787868780EC90E0918B808B81EC90E0B6
:100F3000938B828B82EC90E0958B848B86EC90E097
:100F4000978B868B118E128E138E148E0E949403B3
:100F50000E944F096093B9037093BA038093BB0357
:100F60009093BC03E3EBF3E01182108213821282B0
:100F70001582148250E040E066E272E0CF010E94E8
:100F80006E05EBE9F3E0138212828CE192E091832B
:100F9000808387E384838FEF858386E386838AE378
:100FA00087838BE380878CE381878DE38287138639
:100FB000148615861686178681E00C947204789440
:100FC00084B5826084BD84B5816084BD85B582604E
:100FD00085BD85B5816085BD80916E0081608093FF
:100FE0006E00109281008091810082608093810068
:100FF0008091810081608093810080918000816078
:10100000809380008091B10084608093B1008091D2
:10101000B00081608093B0008091910082608093E5
:101020009100809191008160809391008091900067
:101030008160809390008091A10082608093A100E4
:101040008091A10081608093A1008091A0008160C7
:101050008093A00080912101826080932101809182
:101060002101816080932101809120018160809322
:10107000200180917A00846080937A0080917A00C8
:10108000826080937A0080917A00816080937A00F8
:1010900080917A00806880937A001092C10082E08B
:1010A0000E947204E1E08091AE038111E0E0E195DD
:1010B000F0E0E556FC4F8489885F80680E946C04EC
:1010C00067E272E08BE993E00E941E0564E272E041
:1010D0008BE993E00E941E058EEF92E00E94710161
:1010E00081E692E00E94710160E08DE00E9463035E
:1010F00060E08AE00E94630360E08BE00E9463038B
:1011000060E08CE00E94630360E085E10E9463037D
:1011100060E089E00E946303C1E00E9494030E94A2
:101120004F092091B9033091BA034091BB0350910C
:10113000BC030E94010A20E030E048E452E40E942F
:101140006E0A1816E4F48091B7039091B803892BC6
:10115000B1F063EB73E08EEF92E00E942D0586E222
:1011600092E00E9499050E9494030E944F096093A7
:10117000B9037093BA038093BB039093BC038DE0D3
:101180000E940C03892B51F080916002811106C0EE
:101190008BE292E00E949905C09360028AE00E946F
:1011A0000C03892B51F080915F02811106C083E30B
:1011B00092E00E949905C0935F028BE00E940C03AD
:1011C000892B51F080915E02811106C088E392E084
:1011D0000E949905C0935E028CE00E940C03892B4B
:1011E00051F080915D02811106C08EE392E00E9471
:1011F0009905C0935D0285E10E940C03892B51F093
:1012000080915C02811106C087E492E00E949905FA
:10121000C0935C0289E00E940C03892B51F08091FD
:101220005B02811106C08CE492E00E949905C09394
:101230005B028DE00E940C03892B11F41092600276
:101240008AE00E940C03892B11F410925F028BE05C
:101250000E940C03892B11F410925E028CE00E9414
:101260000C03892B11F410925D0285E10E940C039E
:10127000892B11F410925C0289E00E940C03892BE7
:1012800011F410925B020E94210647CF8091B303B4
:101290009091B403009711F00C94170B0895E89403
:1012A00009C097FB3EF490958095709561957F4FAE
:1012B0008F4F9F4F9923A9F0F92F96E9BB2793955C
:1012C000F695879577956795B795F111F8CFFAF46C
:1012D000BB0F11F460FF1BC06F5F7F4F8F4F9F4F9D
:1012E00016C0882311F096E911C0772321F09EE8FB
:1012F000872F762F05C0662371F096E8862F70E061
:1013000060E02AF09A95660F771F881FDAF7880F3A
:101310009695879597F90895990F0008550FAA0B90
:10132000E0E8FEEF16161706E807F907C0F01216F8
:101330001306E407F50798F0621B730B840B950BFB
:1013400039F40A2661F0232B242B252B21F4089550
:101350000A2609F4A140A6958FEF811D811D0895ED
:1013600097F99F6780E870E060E008959FEF80EC58
:10137000089500240A9416161706180609060895FB
:1013800000240A9412161306140605060895092E61
:101390000394000C11F4882352F0BB0F40F4BF2BD0
:1013A00011F460FF04C06F5F7F4F8F4F9F4F089510
:1013B00057FD9058440F551F59F05F3F71F0479506
:1013C000880F97FB991F61F09F3F79F087950895EB
:1013D000121613061406551FF2CF4695F1DF08C00A
:1013E000161617061806991FF1CF86957105610527
:1013F00008940895E894BB2766277727CB0197F9CF
:1014000008955058BB27AA270E94190A0C94C709AF
:101410000E94B90938F00E94C00920F039F49F3FBA
:1014200019F426F40C94B6090EF4E095E7FB0C943D
:10143000B009E92F0E94D80958F3BA176207730759
:101440008407950720F079F4A6F50C94FA090EF4B8
:10145000E0950B2EBA2FA02D0B01B90190010C01C4
:10146000CA01A0011124FF27591B99F0593F50F4DC
:10147000503E68F11A16F040A22F232F342F442734
:10148000585FF3CF469537952795A795F04053952C
:10149000C9F77EF41F16BA0B620B730B840BBAF0FC
:1014A0009150A1F0FF0FBB1F661F771F881FC2F767
:1014B0000EC0BA0F621F731F841F48F4879577957B
:1014C0006795B795F7959E3F08F0B0CF9395880F35
:1014D00008F09927EE0F9795879508950E948C093B
:1014E00008F48FEF0895EE0FFF1F881F8BBF079042
:1014F000F691E02D19940F931F93CF93DF938230D1
:10150000910510F482E090E0E091BF03F091C003F8
:1015100030E020E0B0E0A0E0309799F421153105EB
:1015200009F44AC0281B390B24303105D8F58A81CB
:101530009B816115710589F1FB0193838283FE0113
:1015400011C0408151810281138148175907E0F091
:101550004817590799F4109761F012960C93129757
:1015600013961C933296CF01DF91CF911F910F916B
:1015700008950093BF031093C003F4CF21153105E4
:1015800051F04217530738F0A901DB019A01BD0160
:10159000DF01F801C1CFEF01F9CF9093C003809331
:1015A000BF03CDCFFE01E20FF31F81939193225031
:1015B000310939832883D7CF2091BD033091BE03F1
:1015C000232B41F420910202309103023093BE0399
:1015D0002093BD03209100023091010221153105B5
:1015E00041F42DB73EB74091040250910502241BEF
:1015F000350BE091BD03F091BE03E217F307A0F4B1
:101600002E1B3F0B2817390778F0AC014E5F5F4F58
:101610002417350748F04E0F5F1F5093BE034093C9
:10162000BD03819391939FCFF0E0E0E09CCFCF93F7
:10163000DF930097E9F0FC01329713821282A091A8
:10164000BF03B091C003ED0130E020E01097A1F49A
:1016500020813181820F931F2091BD033091BE0301
:101660002817390709F061C0F093BE03E093BD036A
:10167000DF91CF910895EA01CE17DF07E8F54A819F
:101680005B819E0141155105B1F7E901FB83EA83B6
:1016900049915991C40FD51FEC17FD0761F4808162
:1016A00091810296840F951FE90199838883828135
:1016B00093819B838A83F0E0E0E012968D919C9168
:1016C00013970097B9F52D913C911197CD01029692
:1016D000820F931F2091BD033091BE032817390755
:1016E00039F6309751F51092C0031092BF03B093B2
:1016F000BE03A093BD03BCCFD383C283408151817D
:10170000840F951FC817D90761F44E5F5F4F88811A
:101710009981480F591F518340838A819B8193830C
:1017200082832115310509F0B0CFF093C003E09317
:10173000BF039ECFFD01DC01C0CF13821282D7CF41
:101740004F925F926F927F928F929F92AF92BF92D1
:10175000CF92DF92EF92FF920F931F93CF93DF937D
:101760008C01009799F4CB01DF91CF911F910F91DC
:10177000FF90EF90DF90CF90BF90AF909F908F90B1
:101780007F906F905F904F900C947B0AFC01E60F66
:10179000F71F9C0122503109E217F30708F4AEC08D
:1017A000D901CD91DC911197C617D70720F1C5302B
:1017B000D10578F0CE0104978617970750F0C61B25
:1017C000D70B2297C193D1936D937C93CF010E9445
:1017D000170BC801DF91CF911F910F91FF90EF90F0
:1017E000DF90CF90BF90AF909F908F907F906F9041
:1017F0005F904F9008955B01AC1ABD0A4C018C0EAE
:101800009D1EA091BF03B091C003512C412CF12C1F
:10181000E12C109731F58091BD039091BE0388159E
:10182000990509F05CC04616570608F058C080912B
:10183000000290910102009741F48DB79EB740914C
:10184000040250910502841B950BE817F90708F074
:1018500055C0F093BE03E093BD03F901718360832B
:10186000B8CF8D919C91119712966C901297139608
:101870007C901397A815B90559F56C0142E0C40E88
:10188000D11CCA14DB0420F1AC014A195B09DA014E
:101890001296159780F06282738251834083D9013A
:1018A0006D937C93E114F10471F0D7011396FC93CE
:1018B000EE9312978ECF22968C0F9D1FF901918384
:1018C0008083F301EFCFF093C003E093BF0381CF98
:1018D0004816590608F42C017D01D3019ACFCB019B
:1018E0000E947B0A7C01009749F0AE01B8010E947A
:1018F000810CC8010E94170B87016BCF10E000E03C
:1019000068CFFB01DC0102C001900D9241505040B4
:10191000D8F70895FB01DC0101900D920020E1F75A
:10192000089511E0CDE3D1E000E006C0802FFE0174
:101930000E94730A2196011DCE33D10780E008076B
:06194000A9F7F894FFCFA7
:101946000000C10380000000000038029801C501B4
:101956008502F601D401E80100000000180598018F
:10196600D303D2030D0A004C4F4C00535452455436
:101976004348004C45465400524947485400434F9B
:101986004C4C415053450045584954005049434B2F
:0219960000004F
:00000001FF
