:100000000C943E010C946F010C946F010C946F01E1
:100010000C946F010C946F010C946F010C946F01A0
:100020000C946F010C946F010C946F010C946F0190
:100030000C946F010C946F010C946F010C946F0180
:100040000C946F010C946F010C946F010C946F0170
:100050000C946F010C946F010C946F010C94F405D7
:100060000C946F010C94BE050C9494050C946F01D4
:100070000C946F010C946F010C946F010C946F0140
:100080000C946F010C946F010C946F010C946F0130
:100090000C946F010C946F010C946F010C946F0120
:1000A0000C946F010C946F010C946F010C946F0110
:1000B0000C946F010C946F010C946F010C946F0100
:1000C0000C946F010C946F010C946F010C946F01F0
:1000D0000C946F010C946F010C946F010C946F01E0
:1000E0000C946F010C94E2020C94F0020C945402F4
:1000F0000C9403030C94D2080C943E060C94CD028D
:100100000C949E010C94DA040C94D1020C94D80245
:100110000C94C1010C9495030C94AD010C94C9028C
:100120000C94F6020C9407020C9404030C9408033C
:100130000C94FA020C94CF010C94EC020C94DE02A5
:100140000C9494030C94E8020C94D5020C94C30212
:100150000C9471010C94FE02000021002400270081
:100160002A002D00300033000101000004010701C6
:100170000A0100002200250028002B002E0031007B
:10018000340002010000050108010B0100002000FD
:100190002300260029002C002F003200000100005F
:1001A00003010601090105050505070508080808FA
:1001B000020202020A0A08080404040401010101FF
:1001C00001010101030303030303030304070707FA
:1001D0000C0C0C0C0C0C0C0C02020202060606069F
:1001E000060606060B0B0B0B0B0B0B0B010210206C
:1001F000200808102040102040800201020108045D
:1002000002010102040810204080804020100804F0
:100210000201800402018040201008040201080449
:10022000020101020408102040800102040810208D
:10023000408000000A0B02090C0D0E0807030401A0
:1002400000000000000000000000000000000000AE
:10025000000000000000000000000000000012117B
:10026000100000000000000000000000000000007E
:1002700000000000000000003E06D20811241FBE4E
:10028000CFEFD1E2DEBFCDBF00E00CBF23E0AEE494
:10029000B2E001C01D92A032B207E1F712E0A0E087
:1002A000B2E0E2EAF8E100E00BBF02C007900D9275
:1002B000AE34B107D9F711E0CDE3D1E000E006C0DC
:1002C00021970109802FFE010E94210ACC33D1071A
:1002D00080E00807A9F70E94F3060C943F0C0C94E9
:1002E0000000AF92BF92CF92DF92EF92FF920F93F6
:1002F0001F93CF93DF936C017B018B01040F151FBC
:10030000EB015E01AE18BF08C017D10759F0699123
:10031000D601ED91FC910190F081E02DC601199577
:10032000892B79F7C501DF91CF911F910F91FF9034
:10033000EF90DF90CF90BF90AF900895FC01538D68
:10034000448D252F30E0842F90E0821B930B5417AF
:1003500010F0CF96089501970895FC01918D828D3C
:10036000981761F0A28DAE0FBF2FB11D5D968C91D5
:10037000928D9F5F9F73928F90E008958FEF9FEF14
:100380000895FC01918D828D981731F0828DE80FD0
:10039000F11D858D90E008958FEF9FEF0895FC018A
:1003A000918D228D892F90E0805C9F4F821B910957
:1003B0008F739927089589E592E00E94CF0121E08B
:1003C000892B09F420E0822F0895FC01A48DA80F49
:1003D000B92FB11DA35ABF4F2C91848D90E0019687
:1003E0008F739927848FA689B7892C93A089B189A7
:1003F0008C91837080648C93938D848D981306C048
:100400000288F389E02D80818F7D80830895EF92AB
:10041000FF920F931F93CF93DF93EC0181E0888FBE
:100420009B8D8C8D98131AC0E889F989808185FF8E
:1004300015C09FB7F894EE89FF896083E889F98930
:1004400080818370806480839FBF81E090E0DF9132
:10045000CF911F910F91FF90EF900895F62E0B8D85
:1004600010E00F5F1F4F0F731127E02E8C8D8E1140
:100470000CC00FB607FCFACFE889F989808185FFA7
:10048000F5CFCE010E94E501F1CFEB8DEC0FFD2FF2
:10049000F11DE35AFF4FF0829FB7F8940B8FEA8962
:1004A000FB8980818062CFCFCF93DF93EC01888D71
:1004B0008823B9F0AA89BB89E889F9898C9185FDDF
:1004C00003C0808186FD0DC00FB607FCF7CF8C916D
:1004D00085FFF2CF808185FFEDCFCE010E94E5013F
:1004E000E9CFDF91CF91089580E090E0892B29F04A
:1004F0000E94DB0181110E94000080E090E0892BC6
:1005000049F080E090E0892B29F00E9400008111E1
:100510000E94000080E090E0892B49F080E090E0AC
:10052000892B29F00E94000081110E94000080E0C8
:1005300090E0892B49F080E090E0892B29F00E941F
:10054000000081110C94000008958150823108F060
:100550005AC0E82FF0E08827EF54FD4F8F4F0C94DE
:10056000210AD102D502C302C902CD020303D80277
:10057000DE02E202E802EC02F002F602FA020303F3
:10058000FE0204030803809180008F77809380002F
:100590000895809180008F7DF9CF80918000877FC2
:1005A000F5CF84B58F7784BD089584B58F7DFBCF5B
:1005B0008091B0008F778093B00008958091B00053
:1005C0008F7DF9CF809190008F7780939000089570
:1005D000809190008F7DF9CF80919000877FF5CF3B
:1005E0008091A0008F778093A00008958091A00053
:1005F0008F7DF9CF8091A000877FF5CF809120017A
:100600008F77809320010895809120018F7DF9CF0D
:1006100080912001877FF5CFCF93DF93282F30E0A3
:10062000F901EE5CFD4F8491F901E451FE4FD49144
:10063000F901EA55FE4FC491CC23A1F081110E942B
:10064000A502EC2FF0E0EE0FFF1FE457FE4FA5913F
:10065000B491EC91ED2381E090E009F480E0DF912A
:10066000CF91089580E090E0FACF1F93CF93DF936E
:10067000282F30E0F901EE5CFD4F8491F901E4513F
:10068000FE4FD491F901EA55FE4FC491CC23A9F055
:10069000162F81110E94A502EC2FF0E0EE0FFF1F34
:1006A000EE58FE4FA591B4918FB7F894EC911111CB
:1006B00008C0D095DE23DC938FBFDF91CF911F91CF
:1006C0000895DE2BF8CFCF93DF9390E0FC01E45147
:1006D000FE4F24918A559E4FFC0184918823D1F0CE
:1006E00090E0880F991FFC01E85AFE4FA591B49144
:1006F000FC01EE58FE4FC591D49161110EC09FB719
:10070000F8948C91E22FE0958E238C932881E2233C
:10071000E8839FBFDF91CF9108958FB7F894EC9154
:10072000E22BEC938FBFF6CF089590E080E0089520
:10073000CF93DF93EC0160E08E810E94350361E08E
:100740008E810E94350360E08E810E9435038BE824
:1007500091E00197F1F7DF91CF910895CF92DF9269
:10076000EF92FF920F931F93CF93DF936C017C0165
:1007700087E0E80EF11CD0E0C0E0062F10E0B801E1
:100780000C2E02C0759567950A94E2F76170F70127
:1007900081917F010E9435032196C430D10579F7FC
:1007A000C601DF91CF911F910F91FF90EF90DF90E5
:1007B000CF900C949803CF92DF92EF92FF920F9319
:1007C0001F93CF93DF93EC01F62E642F8C810E9450
:1007D00035038D818F3F19F060E00E9435030F2DA6
:1007E00010E08F8584FF25C06E0187E0C80ED11C04
:1007F000F12CE12CB8010E2C02C0759567950A9476
:10080000E2F76170F60181916F010E943503FFEFFD
:10081000EF1AFF0A88E0E816F10461F7CE01DF91D4
:10082000CF911F910F91FF90EF90DF90CF900C949C
:100830009803B80184E0759567958A95E1F7CE0134
:100840000E94AE036F2DCE01DF91CF911F910F91CA
:10085000FF90EF90DF90CF900C94AE0340E0682FB4
:100860008AEF92E00C94DB03CF93DF93823029F47C
:100870009091090398609093090380930D0310925F
:100880000E0380E480930F0380E18093100380E5E2
:100890008093110361E08091FE020E9463038091C6
:1008A000FF028F3F19F061E00E94630361E08091D5
:1008B00000030E946303CAEFD2E09E012A5F324028
:1008C0008091090384FD0BC084E090E021962817F5
:1008D000390744F461E08E810E946303EECF88E023
:1008E00090E0F4CF8BE39DE00197F1F760E0809119
:1008F000FE020E94350360E0809100030E943503F0
:100900008091FF028F3F19F060E00E9435038091D3
:10091000090384FD39C063E08AEF92E00E94AE03D0
:10092000CBE4D6E4CE010197F1F763E08AEF92E0E1
:100930000E94AE032197F1F763E08AEF92E00E94F4
:10094000AE0383E592E00197F1F762E08AEF92E06F
:100950000E94AE038091090380620E942E0484E00D
:1009600080930A038CE00E942E0481E00E942E04F2
:100970008BE39FE10197F1F782E080930B0386E020
:10098000DF91CF910C942E0480620E942E048BE4A0
:1009900096E40197F1F78091090380620E942E048A
:1009A00083E592E00197F1F78091090380620E944C
:1009B0002E04D0CF41E00E94DB0381E090E0089557
:1009C0008F929F92AF92BF920F931F93CF93DF931B
:1009D000CDB7DEB7A1970FB6F894DEBF0FBECDBF7F
:1009E00019A2423008F44AE08E010F5D1F4F842E99
:1009F000912CB12CA12CA50194010E94FF09E62F96
:100A0000B901CA01EA3044F5E05DD801EE938D01E9
:100A1000232B242B252B79F790E080E0109769F0A9
:100A2000FD0101900020E9F73197AF014A1B5B0BF4
:100A3000BD018AEF92E00E947101A1960FB6F89471
:100A4000DEBF0FBECDBFDF91CF911F910F91BF9041
:100A5000AF909F908F900895E95CD7CFCF93DF93AD
:100A6000EC018091120390911303009759F02091AB
:100A70001403309115032C173D0720F081E0DF911E
:100A8000CF910895BE016F5F7F4F0E944E0B00977C
:100A900089F09093130380931203D0931503C093AE
:100AA00014032091160330911703232B39F7FC010F
:100AB0001082E4CF80E0E3CF0F931F93CF93DF93B7
:100AC0008C01EC0109900020E9F72197C81BD90B94
:100AD000CE010E942E052091120330911303811143
:100AE00017C02115310519F0C9010E94C50A1092DD
:100AF0001303109212031092170310921603109210
:100B0000150310921403DF91CF911F910F91089557
:100B1000D0931703C0931603B801C901DF91CF9199
:100B20001F910F910C94380C1F920F920FB60F92D9
:100B300011240BB60F922F933F934F935F936F93B4
:100B40007F938F939F93AF93BF93EF93FF9389E529
:100B500092E00E94E501FF91EF91BF91AF919F91CB
:100B60008F917F916F915F914F913F912F910F9056
:100B70000BBE0F900FBE0F901F9018951F920F92F3
:100B80000FB60F9211240BB60F922F938F939F9352
:100B9000EF93FF93E0916902F0916A028081E09106
:100BA0006F02F091700282FD1DC0908180917202EF
:100BB0008F5F8F7320917302821741F0E091720270
:100BC000F0E0E75AFD4F958F80937202FF91EF910D
:100BD0009F918F912F910F900BBE0F900FBE0F9092
:100BE0001F9018958081F2CF1F920F920FB60F922F
:100BF00011242F933F938F939F93AF93BF93809133
:100C0000F6029091F702A091F802B091F9023091AA
:100C1000520223E0230F2D3758F50196A11DB11D77
:100C2000209352028093F6029093F702A093F80269
:100C3000B093F90280914E0290914F02A091500220
:100C4000B09151020196A11DB11D80934E02909367
:100C50004F02A0935002B0935102BF91AF919F9168
:100C60008F913F912F910F900FBE0F901F9018956D
:100C700026E8230F0296A11DB11DD2CF10925C026F
:100C800010925B0288EE93E0A0E0B0E080935D02FA
:100C900090935E02A0935F02B09360028AE092E0BC
:100CA00090935A028093590285EC90E090936602EB
:100CB0008093650284EC90E09093680280936702D1
:100CC00080EC90E090936A028093690281EC90E05E
:100CD00090936C0280936B0282EC90E090936E0292
:100CE00080936D0286EC90E09093700280936F0287
:100CF0001092720210927302109274021092750296
:100D00002FB7F8946091F6027091F7028091F80283
:100D10009091F9022FBF0E94DB0860931803709333
:100D2000190380931A0390931B03109213031092DC
:100D300012031092150310921403109217031092CD
:100D4000160390E080E00E942E052091120330915E
:100D5000130381113EC02115310519F0C9010E940C
:100D6000C50A1092130310921203109217031092E7
:100D7000160310921503109214031092FD021092A4
:100D8000FC028CE192E09093FB028093FA0287E3ED
:100D90008093FE028FEF8093FF0286E3809300032F
:100DA0008AE3809301038BE3809302038CE38093B7
:100DB00003038DE38093040310920503109206034E
:100DC00010920703109208031092090381E00C941B
:100DD0003404109217031092160366E272E0C90100
:100DE0000E94380CCACF789484B5826084BD84B5E3
:100DF000816084BD85B5826085BD85B5816085BD16
:100E000080916E00816080936E00109281008091CD
:100E10008100826080938100809181008160809355
:100E20008100809180008160809380008091B1007A
:100E300084608093B1008091B00081608093B000A5
:100E400080919100826080939100809191008160F7
:100E500080939100809190008160809390008091B8
:100E6000A10082608093A1008091A10081608093A5
:100E7000A1008091A00081608093A0008091210159
:100E80008260809321018091210181608093210102
:100E90008091200181608093200180917A0084609C
:100EA00080937A0080917A00826080937A008091AA
:100EB0007A00816080937A0080917A0080688093C4
:100EC0007A001092C10082E00E943404E1E0809137
:100ED0000D038111E0E0E195F0E0E650FD4F8489DB
:100EE000885F80680E942E04E0916902F0916A0296
:100EF00082E08083E0916502F09166021082E091C9
:100F00006702F09168028FEC808310927102E09189
:100F10006D02F0916E0286E08083E0916B02F091A9
:100F20006C02808180618083E0916B02F0916C02A1
:100F3000808188608083E0916B02F0916C028081F7
:100F400080688083E0916B02F0916C0280818F7DDC
:100F5000808360E08DE00E94630360E08AE00E948D
:100F6000630360E08BE00E94630360E08CE00E941A
:100F7000630360E085E10E94630360E089E00E9412
:100F80006303CBE3DFE12FB7F8946091F602709131
:100F9000F7028091F8029091F9022FBF0E94DB08BE
:100FA000209118033091190340911A0350911B03AB
:100FB0000E948D0920E030E048E452E40E94FA09E2
:100FC00018160CF062C0409116035091170341159A
:100FD000510509F45AC0609112037091130389E519
:100FE00092E00E94710142E050E064E272E089E523
:100FF00092E00E94710186E292E00E945C0581E02D
:101000000E942E04CE010197F1F789E592E00E943B
:10101000AD016C01990FEE08FF084AE0C701B60167
:10102000F7FE0EC041E06DE28AEF92E00E94DB0322
:1010300066277727CB016C197D098E099F094AE045
:101040000E94E004E1E080910D038111E0E0E19570
:10105000F0E0E650FD4F8489885F80680E942E048E
:101060002FB7F8946091F6027091F7028091F80220
:101070009091F9022FBF0E94DB08609318037093D0
:10108000190380931A0390931B038DE00E940C03B5
:10109000892B59F080915802811107C087E292E0B4
:1010A0000E945C0581E0809358028AE00E940C0354
:1010B000892B59F080915702811107C08FE292E08D
:1010C0000E945C0581E0809357028BE00E940C0334
:1010D000892B59F080915602811107C084E392E078
:1010E0000E945C0581E0809356028CE00E940C0314
:1010F000892B59F080915502811107C08AE392E053
:101100000E945C0581E08093550285E10E940C03FA
:10111000892B59F080915402811107C083E492E039
:101120000E945C0581E08093540289E00E940C03D8
:10113000892B59F080915302811107C088E492E015
:101140000E945C0581E0809353028DE00E940C03B5
:10115000892B11F4109258028AE00E940C03892B0B
:1011600011F4109257028BE00E940C03892B11F4AA
:10117000109256028CE00E940C03892B11F41092FD
:10118000550285E10E940C03892B11F41092540240
:1011900089E00E940C03892B11F4109253020E94E3
:1011A0007402F1CE8091120390911303009711F015
:1011B0000C94C50A0895E89409C097FB3EF49095F5
:1011C0008095709561957F4F8F4F9F4F9923A9F020
:1011D000F92F96E9BB279395F695879577956795AF
:1011E000B795F111F8CFFAF4BB0F11F460FF1BC0F3
:1011F0006F5F7F4F8F4F9F4F16C0882311F096E986
:1012000011C0772321F09EE8872F762F05C0662333
:1012100071F096E8862F70E060E02AF09A95660FEC
:10122000771F881FDAF7880F9695879597F90895A5
:10123000990F0008550FAA0BE0E8FEEF16161706E7
:10124000E807F907C0F012161306E407F50798F04F
:10125000621B730B840B950B39F40A2661F0232B68
:10126000242B252B21F408950A2609F4A140A695E4
:101270008FEF811D811D089597F99F6780E870E0C9
:1012800060E008959FEF80EC089500240A941616FC
:10129000170618060906089500240A941216130664
:1012A000140605060895092E0394000C11F48823F2
:1012B00052F0BB0F40F4BF2B11F460FF04C06F5F0E
:1012C0007F4F8F4F9F4F089557FD9058440F551FE4
:1012D00059F05F3F71F04795880F97FB991F61F0B8
:1012E0009F3F79F087950895121613061406551F2F
:1012F000F2CF4695F1DF08C0161617061806991F9B
:10130000F1CF86957105610508940895E894BB278F
:1013100066277727CB0197F908955058BB27AA274E
:101320000E94A5090C9453090E94450938F00E94B7
:101330004C0920F039F49F3F19F426F40C9442092B
:101340000EF4E095E7FB0C943C09E92F0E94640938
:1013500058F3BA17620773078407950720F079F4EA
:10136000A6F50C9486090EF4E0950B2EBA2FA02D4D
:101370000B01B90190010C01CA01A0011124FF2742
:10138000591B99F0593F50F4503E68F11A16F0403D
:10139000A22F232F342F4427585FF3CF469537953C
:1013A0002795A795F0405395C9F77EF41F16BA0B01
:1013B000620B730B840BBAF09150A1F0FF0FBB1FAF
:1013C000661F771F881FC2F70EC0BA0F621F731FF8
:1013D000841F48F4879577956795B795F7959E3F55
:1013E00008F0B0CF9395880F08F09927EE0F9795E6
:1013F000879508950E94180908F48FEF0895A1E2D7
:101400001A2EAA1BBB1BFD010DC0AA1FBB1FEE1F7E
:10141000FF1FA217B307E407F50720F0A21BB30BC9
:10142000E40BF50B661F771F881F991F1A9469F745
:1014300060957095809590959B01AC01BD01CF01A1
:101440000895EE0FFF1F881F8BBF0790F691E02DC8
:1014500019940F931F93CF93DF938230910510F46B
:1014600082E090E0E0911E03F0911F0330E020E065
:10147000B0E0A0E0309799F42115310509F44AC095
:10148000281B390B24303105D8F58A819B816115E1
:10149000710589F1FB0193838283FE0111C04081B4
:1014A00051810281138148175907E0F04817590705
:1014B00099F4109761F012960C93129713961C935F
:1014C0003296CF01DF91CF911F910F910895009334
:1014D0001E0310931F03F4CF2115310551F042175D
:1014E000530738F0A901DB019A01BD01DF01F801C2
:1014F000C1CFEF01F9CF90931F0380931E03CDCF8F
:10150000FE01E20FF31F8193919322503109398339
:101510002883D7CF20911C0330911D03232B41F446
:10152000209102023091030230931D0320931C038B
:1015300020910002309101022115310541F42DB7AF
:101540003EB74091040250910502241B350BE091F7
:101550001C03F0911D03E217F307A0F42E1B3F0BB1
:101560002817390778F0AC014E5F5F4F2417350715
:1015700048F04E0F5F1F50931D0340931C0381934F
:1015800091939FCFF0E0E0E09CCFCF93DF93009763
:10159000E9F0FC01329713821282A0911E03B091F0
:1015A0001F03ED0130E020E01097A1F4208131818C
:1015B000820F931F20911C0330911D0328173907B8
:1015C00009F061C0F0931D03E0931C03DF91CF91FC
:1015D0000895EA01CE17DF07E8F54A815B819E0195
:1015E00041155105B1F7E901FB83EA83499159910E
:1015F000C40FD51FEC17FD0761F48081918102961D
:10160000840F951FE90199838883828193819B834D
:101610008A83F0E0E0E012968D919C9113970097F9
:10162000B9F52D913C911197CD010296820F931F30
:1016300020911C0330911D032817390739F6309784
:1016400051F510921F0310921E03B0931D03A09337
:101650001C03BCCFD383C28340815181840F951F6B
:10166000C817D90761F44E5F5F4F88819981480F91
:10167000591F518340838A819B81938382832115E3
:10168000310509F0B0CFF0931F03E0931E039ECF06
:10169000FD01DC01C0CF13821282D7CF4F925F923F
:1016A0006F927F928F929F92AF92BF92CF92DF9272
:1016B000EF92FF920F931F93CF93DF938C010097CC
:1016C00099F4CB01DF91CF911F910F91FF90EF9093
:1016D000DF90CF90BF90AF909F908F907F906F9052
:1016E0005F904F900C94290AFC01E60FF71F9C01B4
:1016F00022503109E217F30708F4AEC0D901CD91A9
:10170000DC911197C617D70720F1C530D10578F0C5
:10171000CE0104978617970750F0C61BD70B229768
:10172000C193D1936D937C93CF010E94C50AC801E8
:10173000DF91CF911F910F91FF90EF90DF90CF90AD
:10174000BF90AF909F908F907F906F905F904F90E1
:1017500008955B01AC1ABD0A4C018C0E9D1EA09130
:101760001E03B0911F03512C412CF12CE12C10973A
:1017700031F580911C0390911D038815990509F09E
:101780005CC04616570608F058C080910002909140
:101790000102009741F48DB79EB740910402509129
:1017A0000502841B950BE817F90708F055C0F09364
:1017B0001D03E0931C03F90171836083B8CF8D9101
:1017C0009C91119712966C90129713967C90139798
:1017D000A815B90559F56C0142E0C40ED11CCA1414
:1017E000DB0420F1AC014A195B09DA011296159766
:1017F00080F06282738251834083D9016D937C9320
:10180000E114F10471F0D7011396FC93EE93129753
:101810008ECF22968C0F9D1FF90191838083F30157
:10182000EFCFF0931F03E0931E0381CF48165906B4
:1018300008F42C017D01D3019ACFCB010E94290A23
:101840007C01009749F0AE01B8010E942F0CC8013D
:101850000E94C50A87016BCF10E000E068CFFB0152
:10186000DC0102C001900D9241505040D8F708951C
:10187000FB01DC0101900D920020E1F7089511E0D9
:10188000CDE3D1E000E006C0802FFE010E94210AD6
:101890002196011DCE33D10780E00807A9F7F894FF
:0218A000FFCF78
:1018A20000002003800000000000070271019E0179
:1018B2005402CF01AD01C10100000000DA04710140
:1018C200950394030D0A0053545245544348004C67
:1018D20045465400524947485400434F4C4C4150EE
:0E18E20053450045584954005049434B0000FF
:00000001FF
